S01A00004672656552544F5361746D656761333238702E73726563C4
S11300000C94BE010C945D090C94DB010C94DB018F
S11300100C94DB010C94DB010C94DB010C94DB01EC
S11300200C94DB010C94DB010C94DB010C946C0B41
S11300300C94DB010C94DB010C94DB010C94DB01CC
S11300400C94DB010C94DB010C94C1060C94F106B6
S11300500C94DB010C94DB010C94DB010C94DB01AC
S11300600C94A2070C94DB01BC071D081D081D0895
S11300701D081D081D081D08BC071D081D081D08B6
S11300801D081D081D081D08BE071D081D081D08A4
S11300901D081D081D081D081D081D081D081D0834
S11300A01D081D081D081D08BE071D081D081D0884
S11300B01D081D081D081D081D081D081D081D0814
S11300C01D081D081D081D0816081D081D081D080B
S11300D01D081D081D081D08EB071D081D081D0827
S11300E01D081D081D081D081D081D081D081D08E4
S11300F01D081D081D081D08DF071D081D081D0813
S11301001D081D081D081D0803080500050001023F
S113011000000801010A0508040100F9810000013A
S11301202C0E0005000E0C04000080010302F9816E
S1130130000003E80F09020000002405000000008D
S11301400F09040000000204000000000F0904006D
S113015000010003000000080F090400000002026F
S113016000000008060005000600040F0005000F4B
S113017009080000000101000000000000891112BC
S1130180239B322446AD573665BF74488CC19D5AB3
S1130190AFD3BE6CCAE5DB7EE9F7F88110080193A2
S11301A0331A22A5562C47B7753E64C99C408DDB93
S11301B0BF52AEEDDA64CBFFF976E802218B301042
S11301C00299132667AF763444BD554AADC3BC5873
S11301D08ED19F6EEBE7FA7CC8F5D983310A209162
S11301E0121803A7772E66B5543C45CBBD42ACD953
S11301F09E508FEFFB66EAFDD874C904428D5316F6
S1130200619F702004A9153227BB364CCEC5DF5E32
S1130210EDD7FC6888E1997AABF3BA85520C439721
S1130220711E60A1142805B3373A26CDDE44CFDF12
S1130230FD56ECE9986089FBBB72AA06638F7214C1
S1130240409D512225AB343006B9174EEFC7FE5CF2
S1130250CCD5DD6AA9E3B8788AF19B87730E6295E1
S1130260501C41A3352A24B1163807CFFF46EEDDD2
S1130270DC54CDEBB962A8F99A708B088481951A85
S1130280A793B62CC2A5D33EE1B7F04008C91952D2
S11302902BDB3A644EED5F766DFF7C899400859B81
S11302A0B712A6ADD224C3BFF136E0C1184809D3B2
S11302B03B5A2AE55E6C4FF77D7E6C0AA583B41821
S11302C08691972EE3A7F23CC0B5D14229CB385092
S11302D00AD91B666FEF7E744CFD5D8BB502A49941
S11302E0961087AFF326E2BDD034C1C3394A28D172
S11302F01A580BE77F6E6EF55C7C4D0CC685D71ED5
S1130300E597F42880A1913AA3B3B2444ACD5B5651
S113031069DF78600CE91D722FFB3E8DD604C79F00
S1130320F516E4A9902081BBB332A2C55A4C4BD731
S1130330795E68E11C680DF33F7A2E0EE787F61CA0
S1130340C495D52AA1A3B03882B193466BCF7A5411
S113035048DD59622DEB3C700EF91F8FF706E69DC0
S1130360D414C5ABB122A0B9923083C77B4E6AD5F1
S1130370585C49E33D6A2CF11E780F0011241FBE1E
S1130380CFEFD8E0DEBFCDBF11E0A0E0B1E0EAE6F8
S1130390F6E202C005900D92A632B107D9F728E023
S11303A0A6E2B1E001C01D92AD37B207E1F70E94A9
S11303B033080C9433130C940000CF93DF9300D0D4
S11303C0CDB7DEB70E94380720E040E050E060E09F
S11303D070E08091D5079091D6070E94C10C20E06F
S11303E04FEF5FEFBE016F5F7F4F8091790890916F
S11303F07A080E948E0D882391F360E389819A81A3
S11304000E943207ECCFAF92BF92CF92DF92EF926D
S1130410FF920F93082F80E80E94770643E060E084
S113042081E00E94930C9093D6078093D507A12C6A
S1130430B12CC12CD12CE12CF12C20E030E040E097
S113044051E061E071E08DED91E00E94CC0E0F91DE
S1130450FF90EF90DF90CF90BF90AF9008950F93EF
S11304601F93CF93DF93EC010C8110E0EA81FB81B1
S11304700995FE01E00FF11F85838C818F5F8C83CA
S1130480EC81F0E03197EC0FFD1F85818E37F9F494
S11304908C8190E0019718161906CCF420E230E024
S11304A0AE014C5F5F4FBE016B5F7F4FCE018E5834
S11304B09F4F0E941F059E8F8D8F8D8D9E8D1816C8
S11304C0190614F481E08F8F1C828F8D02C01F8E59
S11304D08F8DDF91CF911F910F910895EF92FF922D
S11304E00F931F93CF93DF93E62E8A01662359F06F
S11304F0C82FD92FF12CD801ED91FC918991099540
S1130500F394FE10F8CFDF91CF911F910F91FF90DC
S1130510EF900895442389F0282FE62FF72FA82F72
S1130520B92F30E08D919491891301C03F5F3196CA
S11305308A2F821B8417B0F301C030E081E03417A6
S113054008F480E00895EF92FF920F931F93CF93E6
S1130550DF93EC0120E04FEF5FEF60E070E080910B
S1130560D7079091D8070E948E0D813099F71F8E7E
S113057088E0FE01EC58FF4F80834D8D5E8D8E0127
S11305800E581F4F6FE671E0C8010E948A0288234B
S1130590B1F022E530E044E050E06BE671E07E012A
S11305A080E2E80EF11CC7010E940D06FE01EE5622
S11305B0FF4F8083AE01682FC7010E946E027E0147
S11305C080E2E80EF11C22E530E043E050E068E60A
S11305D071E0C7010E940D06FE01EE56FF4F8083B5
S11305E0AE01682FC7010E946E0220E04FEF5FEF5B
S11305F060E070E08091D7079091D8070E948E0D3B
S1130600813099F71F8E4D8D5E8D64E671E0C801CF
S11306100E948A02882391F022E530E044E050E011
S113062064E671E0C7010E940D06FE01EE56FF4F1D
S11306308083AE01682FC7010E946E0220E04FEF55
S11306405FEF60E070E08091D7079091D8070E9437
S11306508E0D813099F71F8E4D8D5E8D68E571E0AA
S1130660C8010E948A02882391F022E530E044E028
S113067050E06BE671E0C7010E940D06FE01EE56E4
S1130680FF4F8083AE01682FC7010E946E0220E0F5
S11306904FEF5FEF60E070E08091D7079091D8074B
S11306A00E948E0D813099F71F8E4D8D5E8D6CE406
S11306B071E0C8010E948A02882391F022E530E0AB
S11306C044E050E06BE671E0C7010E940D06FE01B4
S11306D0EE56FF4F8083AE01682FC7010E946E0261
S11306E020E04FEF5FEF60E070E08091D7079091DA
S11306F0D8070E948E0D813099F71F8E4D8D5E8D27
S113070060E471E0C8010E948A02882391F022E526
S113071030E044E050E06BE671E0C7010E940D0652
S1130720FE01EE56FF4F8083AE01682FC7010E9481
S11307306E0220E04FEF5FEF60E070E08091D7073A
S11307409091D8070E948E0D813099F71F8E4D8DA0
S11307505E8D64E371E0C8010E948A02882391F0EF
S113076022E530E044E050E06BE671E0C7010E940E
S11307700D06FE01EE56FF4F8083AE01682FC701C0
S11307800E946E0220E04FEF5FEF60E070E0809126
S1130790D7079091D8070E948E0D813099F71F8E4C
S11307A04D8D5E8D65E271E0C8010E948A02882346
S11307B091F022E530E044E050E061E271E0C701ED
S11307C00E940D06FE01EE56FF4F8083AE01682F96
S11307D0C7010E946E02DF91CF911F910F91FF908C
S11307E0EF900895CF92DF92EF92FF920F931F93B1
S11307F0CF93DF93EC018C01005E1F4F22E530E0C4
S11308004DE050E064E171E0C8010E940D06FE0174
S1130810EE56FF4F8083AE01682FC8010E946E021E
S113082020E04FEF5FEF60E070E08091D707909198
S1130830D8070E948E0D813099F71F8E4D8D5E8DE5
S11308406EE071E0CE018E589F4F0E948A026E01C5
S113085082E9C80ED11C7E01E5E7EE0EF11C20E012
S11308604FEF5FEF60E070E08091D7079091D80779
S11308700E948E0D813099F71F8E22E530E044E00E
S113088050E061E271E0C8010E940D06F601808328
S1130890AE01682FC8010E946E02F7018081833087
S11308A0F1F280818111DBCFDF91CF911F910F9104
S11308B0FF90EF90DF90CF900895442381F0282F8C
S11308C0A62FB72FE82FF92F30E091918D9198132F
S11308D001C03F5F8E2F821B8417B8F301C030E044
S11308E081E0341708F480E00895DF92EF92FF92DC
S11308F00F931F93CF93DF93D62E142FE901790121
S113090022E9E20EF11CF70110822BE0E6E0F1E0AF
S1130910A6E2B1E001900D922A95E1F729E0260FB5
S11309202093270160933101462F50E0BC0182E3FC
S113093091E00E942A1310932B018E01005E1F4F39
S11309404CE04D0D50E022E530E066E271E0C80174
S11309500E94B005F7018083AE01682FC8010E9490
S11309606E0220E04FEF5FEF60E070E08091D70708
S11309709091D8070E948E0D813099F71F8E4D8D6E
S11309805E8D6AE071E0CE018E589F4F0E945D0437
S113099091E0811101C090E0892FDF91CF911F91E7
S11309A00F91FF90EF90DF900895FC01E627FF2759
S11309B0EE0FFF1FE558FE4F25913491892F99279B
S11309C08227932708950F931F93CF93DF93611585
S11309D0710579F0EC018C01060F171F8FEF9FEF63
S11309E0FE0164910E94D5042196C017D107C1F776
S11309F002C08FEF9FEF80959095DF91CF911F916B
S1130A000F9108950F931F93CF93DF936115710591
S1130A1069F0EC018C01060F171F8FEF9FEF6991AE
S1130A200E94D504C017D107D1F702C08FEF9FEF02
S1130A3080959095DF91CF911F910F9108954F92DA
S1130A405F926F927F928F929F92AF92BF92CF925A
S1130A50DF92EF92FF920F931F93CF93DF934C019A
S1130A606A015901FA018081882309F44DC0062FD7
S1130A70172F40E050E0712C8FEF9FEFE12CF12C09
S1130A80C0E0D0E066246394512C6894442445F873
S1130A90F80121918F012E3769F4772051F1552304
S1130AA059F1CF5FF601C083883B904F81F5C701B0
S1130AB0029735C02D37F9F07720F1F0442331F057
S1130AC0F401EE0DFF1D2425208304C0F401EE0D76
S1130AD0FF1D2083AE14BF04E8F0F401EE0DFF1DEA
S1130AE060810E94D5042FEFE21AF20A452D562D9B
S1130AF003C0762C01C0462D2196F601208130E0FA
S1130B00C217D30728F209C08EEF9FEF08C08FEFFA
S1130B109FEF05C08DEF9FEF02C08EEF9FEFDF9137
S1130B20CF911F910F91FF90EF90DF90CF90BF90E6
S1130B30AF909F908F907F906F905F904F900895AB
S1130B4023E8260F223040F42DE7FC01208320E225
S1130B506227618382E00895FC01608381E0089547
S1130B608F929F92AF92BF92CF92DF92EF92FF92B9
S1130B700F931F93CF93DF937C015B01EA0169011B
S1130B80BA01C5010E940205882E992E8EE7F7014D
S1130B9080832097C9F08501AC0EBD1EC1E0D0E072
S1130BA0F4E0CF1AD108F80161918F01C7018C0FCD
S1130BB09D1F0E94A005C80FD11DCC16DD06F0F0C4
S1130BC00A151B0581F702C0C1E0D0E0682DC701FA
S1130BD08C0F9D1F0E94A005C80FD11D692DC70150
S1130BE08C0F9D1F0E94A005C80FD11DF701EC0FAB
S1130BF0FD1F8EE78083CE01019602C08DEF9FEF2B
S1130C00DF91CF911F910F91FF90EF90DF90CF90E4
S1130C10BF90AF909F908F9008958F929F92AF92C4
S1130C20BF92CF92DF92EF92FF920F931F93CF93D5
S1130C30DF937C015B01EA016901BA01C5010E94ED
S1130C40E304882E992E8EE7F70180832097D1F054
S1130C508501AC0EBD1EC1E0D0E0F4E0CF1AD1088E
S1130C60F8016491C7018C0F9D1F0E94A005C80F55
S1130C70D11DCC16DD0600F10F5F1F4F0A151B05B1
S1130C8079F702C0C1E0D0E0682DC7018C0F9D1F29
S1130C900E94A005C80FD11D692DC7018C0F9D1F8F
S1130CA00E94A005C80FD11DF701EC0FFD1F8EE7B0
S1130CB08083CE01019602C08DEF9FEFDF91CF912B
S1130CC01F910F91FF90EF90DF90CF90BF90AF9066
S1130CD09F908F90089584B18FEF84B9089595B152
S1130CE081E0892785B908958091C60008950FB6DB
S1130CF0F8940F9240E061E00E94930C9093670196
S1130D008093660183E090E09093C5008093C400D3
S1130D1088E98093C10086E08093C20043E060E0EC
S1130D2081E00E94930C9093D8078093D7070F908B
S1130D300FBE80E090E00895CF93DF931F92CDB76C
S1130D40DEB7698320E0BE016F5F7F4F809166014B
S1130D50909167010E94C10C813031F4E1ECF0E024
S1130D6090819062908301C080E00F90DF91CF91D9
S1130D70089540E150E0682F80E090E00E949C06D6
S1130D8008951F920F920FB60F9211242F933F9341
S1130D904F935F936F937F938F939F93AF93BF937F
S1130DA0EF93FF9389ED97E00E942F02882341F08F
S1130DB060E070E08091D7079091D8070E94630D9E
S1130DC0FF91EF91BF91AF919F918F917F916F911F
S1130DD05F914F913F912F910F900FBE0F901F90F5
S1130DE018951F920F920FB60F9211242F933F93D1
S1130DF04F935F936F937F938F939F93AF93BF931F
S1130E00EF93FF93CF93DF931F92CDB7DEB72A9A68
S1130E1040E050E0BE016F5F7F4F8091660190918A
S1130E2067010E943A0E813021F489818093C600C3
S1130E3005C0E1ECF0E080818F7D80830F90DF912D
S1130E40CF91FF91EF91BF91AF919F918F917F913E
S1130E506F915F914F913F912F910F900FBE0F9023
S1130E601F90189529ED37E044E00E947504089519
S1130E7089EB96E09093DA078093D90784E796E0AC
S1130E809093DC078093DB0783E087B984E088B91B
S1130E9088EC90E00E949B11409A89ED97E00E94B3
S1130EA0A30289ED97E00E94F203419A08951092FB
S1130EB0B9008DE18093B800089520916A01211151
S1130EC0FCCF60936C08FC01208120936D08208185
S1130ED020FD12C0623080F031969C01029662506F
S1130EE0860F911DDF01A21BB30B4191A359B74F8C
S1130EF04C93E817F907B1F71092690188EF8093D2
S1130F00000185EA8093BC0081E080936A01089522
S1130F1020916A012111FCCF2091690120FF0EC0AC
S1130F20662361F0E82FF92F80E090E0DC01A359FB
S1130F30B74F2C91219301968617C0F380916901D4
S1130F40817008951F920F920FB60F9211242F9360
S1130F503F938F939F93AF93BF93EF93FF938091AE
S1130F60B90090E0FC013897E135F10508F065C05F
S1130F70EC5CFF4F0C94241310926801E09168011B
S1130F8080916C08E81780F481E080936A018E0FE9
S1130F9080936801F0E0E359F74F80818093BB00B0
S1130FA085E88093BC0052C0809169018160809380
S1130FB0690110926A0184E98093BC0047C0E09102
S1130FC0680181E08E0F80936801F0E08091BB009E
S1130FD0E359F74F808380916C082091680130E0D9
S1130FE090E00197281739073CF481E080936A0167
S1130FF085EC8093BC002AC081E080936A0185E877
S11310008093BC0023C0E0916801F0E08091BB00B4
S1131010E359F74F8083809169018160809369016E
S113102010926A0184E98093BC0010C081E080932F
S11310306A0185EA8093BC0009C010926A0180911C
S1131040B9008093000184E08093BC00FF91EF918C
S1131050BF91AF919F918F913F912F910F900FBEB0
S11310600F901F90189582E00E94030282E00E9474
S11310703909A12CB12CC12CD12CE12CF12C01E08B
S113108020E030E045E550E066E171E08DE498E071
S11310900E94CC0E0E94D50FFFCFCF93DF9300D0D8
S11310A0CDB7DEB70E946B060E940D109A83898328
S11310B00E946F0668EE73E0CE0101960E945911FA
S11310C0F7CFCF93DF93CDB7DEB72C970FB6F89455
S11310D0DEBF0FBECDBF40E062E081E00E94930C12
S11310E090937A088093790843E060E081E00E945D
S11310F0930C909378088093770820E04FEF5FEF8C
S113110060E070E08091D5079091D6070E948E0D23
S1131110813099F752985A9AE89AE9E6F0E080818A
S1131120826080830E9457071CE31B831C8288E72C
S11311308D8363E0CE0103960E945D0784E690E010
S11311400E949B111B8381E08C8380EA8D8363E082
S1131150CE0103960E945D0784E690E00E949B11F5
S11311601B8382E08C831D8263E0CE0103960E9480
S11311705D0784E690E00E949B114198E12CF12CDC
S1131180B12C0F2EFDE37F2EF02D0F2EF3E0AF2EAA
S1131190F02D8E01055F1F4F0F2EFBE6CF2EF1E0E1
S11311A0DF2EF02D0F2EFCE38F2EF02D6894992462
S11311B091F820E04FEF5FEF60E070E080917708F6
S11311C0909178080E948E0D882399F37B82AC82DB
S11311D068E0CE0103960E945D0781E090E00E94E2
S11311E09B1168E0CE0103960E948807FE013596A4
S11311F08B2D90E0DC01AA0FBB1F8A0F9B1FDC0123
S1131200AA0FBB1FA559BE4F81918D93E017F1071B
S1131210D9F7B39487E08B1590F48FEFE81AF80AA6
S1131220DA82C98220E040E050E0BE016F5F7F4F68
S11312308091790890917A080E94C10CB12C8B821C
S11312409C821D826A2DCE0103960E945D0781E077
S113125090E00E949B1188E8E81683E1F80609F003
S1131260A8CF419A80917B0890917C080E94191222
S1131270A0CFAF92BF92CF92DF92EF92FF920F93E3
S1131280A12CB12CC12CD12C0F2EFBE7EF2EF8E0B2
S1131290FF2EF02D082F20E030E040E051E06AE11D
S11312A071E081E698E00E94CC0E0F91FF90EF90E0
S11312B0DF90CF90BF90AF9008951F920F920FB61A
S11312C00F9211242F933F934F935F936F937F93C8
S11312D08F939F93AF93BF93EF93FF9360E070E07E
S11312E080917708909178080E94630DFF91EF91A7
S11312F0BF91AF919F918F917F916F915F914F912A
S11313003F912F910F900FBE0F901F901895FC01E5
S11313100396928381832FEF3FEF34832383968355
S113132085839087878310820895FC011186108637
S11313300895CF93DF939C01FB01DC011196CD91BD
S1131340DC911297D383C2838C819D81958384839E
S11313508C819D81DC0113967C936E9312977D831F
S11313606C8331872087F90180818F5F8083DF91CF
S1131370CF910895CF93DF93EB01488159814F3F7B
S11313802FEF520721F4FC01A781B0850DC0DC01C9
S113139013961296ED91FC91139720813181421797
S11313A0530710F0DF01F5CF1296ED91FC911397DE
S11313B0FB83EA83D583C483BD83AC831396DC9318
S11313C0CE93129799878887FC0120812F5F208311
S11313D0DF91CF910895CF93DF93FC01A085B18570
S11313E0C281D381848195819D838C83C481D5817D
S11313F0828193819B838A831196CD91DC9112978C
S1131400CE17DF0731F48C819D8112969C938E93C5
S11314101197118610868C9181508C93DF91CF9116
S1131420089531E1FC013083319722E22083319722
S1131430A3E3A0833197608331977083319710823F
S1131440319760E8608331971082319762E060835E
S1131450319763E06083319764E06083319765E09E
S11314606083319766E06083319767E060833197EA
S113147068E06083319769E06083319760E160835D
S113148031973083319732E13083319733E13083C0
S1131490319734E13083319735E13083319736E148
S11314A03083319737E13083319738E13083319796
S11314B039E13083319730E23083319731E2308340
S11314C031972083319723E22083319740833197EA
S11314D05083319726E22083319727E22083319786
S11314E028E22083319729E22083319720E3208367
S11314F0319721E32083869708951092890082E72B
S1131500809388008BE080938100EFE6F0E0808197
S113151082608083A091D307B091D407CD91CDBFD1
S1131520DD91DEBFFF91EF91DF91CF91BF91AF913C
S11315309F918F917F916F915F914F913F912F91E7
S11315401F910F91FF90EF90DF90CF90BF90AF90DD
S11315509F908F907F906F905F904F903F902F90CF
S11315601F900F900FBE0F90089581E008950F9281
S11315700FB6F8940F921F9211242F923F924F921C
S11315805F926F927F928F929F92AF92BF92CF920F
S1131590DF92EF92FF920F931F932F933F934F93FA
S11315A05F936F937F938F939F93AF93BF93CF93E7
S11315B0DF93EF93FF93A091D307B091D4070DB6B7
S11315C00D920EB60D920E94BB11A091D307B0915B
S11315D0D407CD91CDBFDD91DEBFFF91EF91DF91B7
S11315E0CF91BF91AF919F918F917F916F915F91B7
S11315F04F913F912F911F910F91FF90EF90DF90AA
S1131600CF90BF90AF909F908F907F906F905F909E
S11316104F903F902F901F900F900FBE0F90089502
S11316200F920FB6F8940F921F9211242F923F92AB
S11316304F925F926F927F928F929F92AF92BF92DE
S1131640CF92DF92EF92FF920F931F932F933F93CA
S11316504F935F936F937F938F939F93AF93BF93B6
S1131660CF93DF93EF93FF93A091D307B091D40767
S11316700DB60D920EB60D920E94171081110E94A4
S1131680BB11A091D307B091D407CD91CDBFDD910B
S1131690DEBFFF91EF91DF91CF91BF91AF919F9109
S11316A08F917F916F915F914F913F912F911F91F6
S11316B00F91FF90EF90DF90CF90BF90AF909F90ED
S11316C08F907F906F905F904F903F902F901F90DE
S11316D00F900FBE0F9008950E94100B1895CF9392
S11316E0DF93EC010E94071080919B0190919C0173
S11316F0892B31F480EA91E090939C0180939B01C3
S113170040919D0150919E019E01240F351F2B3D58
S113171085E0380770F44217530770F4C0919B01B9
S1131720D0919C01C40FD51F30939E0120939D013D
S113173005C0C0E0D0E002C0C0E0D0E00E94D610F6
S1131740CE01DF91CF91089508951F93CF93DF9336
S1131750EC01142F8C8D8823E9F1411117C0482F17
S113176050E08C819D810E942A132C8D8C819D8157
S1131770820F911D9D838C832A813B81821793075D
S113178048F1888199819D838C8324C0482F50E03F
S11317908E819F810E942A132C8D30E031952195F2
S11317A031098E819F81820F931F9F838E8368816D
S11317B079818617970730F48A819B81280F391F16
S11317C03F832E83123031F48A8D882319F08A8D59
S11317D081508A8F8A8D8F5F8A8F80E0DF91CF91CD
S11317E01F910895FC01CB01448D4423A1F050E0E6
S11317F026813781240F351F3783268362817381C5
S11318002617370720F020813181378326836681AC
S113181077810E942A1308950F931F93CF93DF9328
S1131820EC010FB6F8940F928E8D1816B4F48989D2
S1131830882399F08E010F5E1F4F03C08989882386
S113184061F0C8010E94941281110E9420138E8DB0
S113185081508E8F8E8D18168CF38FEF8E8F0F9094
S11318600FBE0FB6F8940F928D8D1816B4F48885B8
S1131870882399F08E01085F1F4F03C08885882351
S113188061F0C8010E94941281110E9420138D8D71
S113189081508D8F8D8D18168CF38FEF8D8F0F9057
S11318A00FBEDF91CF911F910F910895CF93DF93D6
S11318B0EC010FB6F8940F92888199812C8D30E059
S11318C07B8D729FA001739F500D1124FC01E40FC6
S11318D0F51FFB83EA831A8E9D838C83421B530B73
S11318E0840F951F9F838E838FEF8D8F8E8F611151
S11318F00CC08885882389F0CE0108960E94941232
S1131900813059F40E94B70A08C0CE0108960E949B
S11319108709CE0141960E9487090F900FBE81E08E
S1131920DF91CF9108950F931F93CF93DF93082FE7
S1131930162F6623C9F0869FC001112480960E9449
S11319406F0BEC01009721F416C0D983C88305C03E
S11319509C01215E3F4F398328830B8F1C8F61E0EC
S1131960CE010E94560C07C08FE190E00E946F0BDD
S1131970EC01009751F7CE01DF91CF911F910F91A8
S113198008959F92AF92BF92CF92DF92EF92FF920F
S11319900F931F93CF93DF9300D000D01F92CDB746
S11319A0DEB78C016B015D834C83A22EB12C99248C
S11319B093947C0188E0E80EF11C0FB6F8940F9222
S11319C0F801928D838D981718F0F2E0AF1219C0C8
S11319D04A2DB601C8010E94A50BF80191899923EB
S11319E049F0C80141960E949412813031F40E945A
S11319F0B70A03C081110E94B70A0F900FBE81E09D
S1131A0051C0EC81FD81EF2B21F40F900FBE80E0DB
S1131A1049C0B11005C0CE0101960E94DC12B92C58
S1131A200F900FBE0E9407100FB6F8940F92F801A2
S1131A30858D8F3F09F4158EF801868D8F3F09F44B
S1131A40168E0F900FBEBE016C5F7F4FCE010196C4
S1131A500E94E712811120C00FB6F8940F92F8018A
S1131A60928D0F900FBEF801838D98130FC06C8177
S1131A707D81C7010E946812C8010E940C0C0E945B
S1131A80D61081119ACF0E94B70A97CFC8010E943D
S1131A900C0C0E94D61091CFC8010E940C0C0E941D
S1131AA0D61080E00F900F900F900F900F90DF9161
S1131AB0CF911F910F91FF90EF90DF90CF90BF9047
S1131AC0AF909F900895CF93DF93FC01EB01928D2B
S1131AD0838D9817C8F4828D8F5F828F868D8F3F98
S1131AE071F48189882391F0CF0141960E94941268
S1131AF0882371F0209771F081E088830CC0868D73
S1131B008F5F868F81E007C080E005C081E003C05D
S1131B1081E001C081E0DF91CF9108959F92AF925F
S1131B20BF92CF92DF92EF92FF920F931F93CF93C6
S1131B30DF9300D000D01F92CDB7DEB78C016B01CC
S1131B405D834C83B22EA12C992493947C0181E172
S1131B50E80EF11C0FB6F8940F92F801828D8823D9
S1131B6049F1E680F780B601C8010E94F20BB1107A
S1131B7010C0F801828D8150828F80858823B1F056
S1131B80C80108960E949412813081F40E94B70A19
S1131B900DC0F801F782E6828189882339F0C801F3
S1131BA041960E94941281110E94B70A0F900FBEB1
S1131BB081E04FC04C815D81452B21F40F900FBE15
S1131BC080E047C0A11005C0CE0101960E94DC123E
S1131BD0A92C0F900FBE0E9407100FB6F8940F9215
S1131BE0F801858D8F3F09F4158EF801868D8F3F9E
S1131BF009F4168E0F900FBEBE016C5F7F4FCE01AD
S1131C0001960E94E71281111EC00FB6F8940F923C
S1131C10F801828D0F900FBE81110FC06C817D8100
S1131C20C7010E946812C8010E940C0C0E94D610C1
S1131C30811190CF0E94B70A8DCFC8010E940C0C6D
S1131C400E94D61087CFC8010E940C0C0E94D610A7
S1131C5080E00F900F900F900F900F90DF91CF9135
S1131C601F910F91FF90EF90DF90CF90BF90AF90B6
S1131C709F9008950F931F93CF93DF93EC018A01F4
S1131C808A8D8823F1F0CE010E94F20B8A8D815057
S1131C908A8F8D8D8F3F81F488858823A1F0CE01B2
S1131CA008960E949412882381F00115110579F099
S1131CB081E0F80180830CC08D8D8F5F8D8F81E072
S1131CC007C080E005C081E003C081E001C081E07D
S1131CD0DF91CF911F910F910895E0919B07F091AF
S1131CE09C078081811107C08FEF9FEF90937D0740
S1131CF080937C070895E0919B07F0919C070580F1
S1131D00F681E02D0680F781E02D82819381909306
S1131D107D0780937C070895CFEAD7E088818230DD
S1131D2008F4FFCF0E94B70AF9CFCF93DF93EC01F9
S1131D30E091D307F091D407938382838091840741
S1131D4090918507C817D90768F46091D3077091FB
S1131D50D4078091990790919A076E5F7F4F0E94F4
S1131D60BA0917C06091D3077091D40780919B077B
S1131D7090919C076E5F7F4F0E94BA0980917C0707
S1131D8090917D07C817D90720F4D0937D07C0939D
S1131D907C07DF91CF9108954F925F926F927F926B
S1131DA08F929F92AF92BF92CF92DF92EF92FF9267
S1131DB00F931F93CF93DF934C015B012A013901E9
S1131DC0C114D10439F4CA010E946F0B6C0100974D
S1131DD009F4D9C086E290E00E946F0BEC010097F1
S1131DE071F0D88ECF8A81E0481A5108C40CD51CF2
S1131DF0D5018C91898F8C91811105C015C0C601C4
S1131E000E94A40BC0C0AE01465E5F4FF50131963F
S1131E1027E0CF013191DA013D93AD01DC018C91D2
S1131E20882311F02150A9F718A2102F043008F0CC
S1131E3013E01E8B5E01B2E0AB0EB11CC5010E9423
S1131E409509CE010C960E949509D987C88784E02C
S1131E5090E0811B91099D878C87DB8BCA8B19A22B
S1131E601AA21BA21CA21DA2A301B401C6010E94B6
S1131E70110A99838883E114F10419F0F701D183DD
S1131E80C0830FB6F8940F92809186078F5F80937A
S1131E9086078091D3079091D407892BA9F5D09315
S1131EA0D407C093D307809186078130E1F58FEA88
S1131EB097E00E94870988EB97E00E94870981ECEC
S1131EC097E00E9487098AEC97E00E94870986EAD6
S1131ED097E00E9487098DE997E00E94870980E9CD
S1131EE097E00E94870987E897E00E94870986EABD
S1131EF097E090939C0780939B078DE997E09093DC
S1131F009A07809399070FC08091820781110BC0B3
S1131F10E091D307F091D4078689081720F0D09375
S1131F20D407C093D30780917E078F5F80937E0789
S1131F308E8990918307981710F48093830790E01B
S1131F409C01220F331F220F331F220F331F820FD6
S1131F50931FB5018155984F0E9499090F900FBEA8
S1131F6080918207882359F0E091D307F091D40738
S1131F708689801730F40E94B70A81E005C081E0A9
S1131F8003C081E001C08FEFDF91CF911F910F91CA
S1131F90FF90EF90DF90CF90BF90AF909F908F9085
S1131FA07F906F905F904F900895AF92BF92CF92C1
S1131FB0DF92EF92FF920F93A12CB12CC12CD12C64
S1131FC0E12CF12C00E020E030E045E550E061E256
S1131FD071E08CE89EE00E94CC0E813081F4F8948C
S1131FE08FEF9FEF90937D0780937C0781E0809330
S1131FF0820710928507109284070E947D0A0F9130
S1132000FF90EF90DF90CF90BF90AF9008958091B4
S11320107B078F5F80937B0708950FB6F8940F9228
S113202080918407909185070F900FBE0895CF92F9
S1132030DF92EF92FF920F931F93CF93DF938091E0
S11320407B0781119AC0809184079091850701963E
S11320509093850780938407E0908407F090850728
S1132060E114F104B9F480919B0790919C072091AD
S1132070990730919A0730939C0720939B0790937C
S11320809A078093990780917F078F5F80937F07DA
S11320900E946D0E80917C0790917D07E816F906E9
S11320A008F454C0D12CCC24C39401C0DC2CE0919E
S11320B09B07F0919C078081811107C08FEF9FEFF0
S11320C090937D0780937C0742C0E0919B07F09139
S11320D09C070580F681E02DC681D7812A813B814A
S11320E0E216F30628F430937D0720937C072FC073
S11320F08E010E5F1F4FC8010E94EB098C899D89D8
S1132100892B21F0CE010C960E94EB092E89809137
S11321108307821710F42093830730E0C901880FE6
S1132120991F880F991F880F991F820F931FB80159
S11321308155984F0E949909E091D307F091D407F3
S11321409E898689981708F0B1CFB1CFD12CE09140
S1132150D307F091D407868990E0FC01EE0FFF1FAE
S1132160EE0FFF1FEE0FFF1F8E0F9F1FFC01E155A7
S1132170F84F8081823040F409C0809181078F5FDD
S113218080938107D12C02C0DD24D39480918007F1
S1132190882311F0DD24D3948D2DDF91CF911F91ED
S11321A00F91FF90EF90DF90CF900895DF92EF9220
S11321B0FF920F931F93CF93DF930FB6F8940F9270
S11321C080917B07815080937B0780917B078111ED
S11321D061C080918607882309F45EC00F2EF0E960
S11321E0EF2EF7E0FF2EF02DDD24D39430C0E091E4
S11321F09507F0919607C681D781CE010C960E946F
S1132200EB098E010E5F1F4FC8010E94EB098E89F6
S113221090918307981710F48093830790E09C01B2
S1132220220F331F220F331F220F331F820F931FDE
S1132230B8018155984F0E949909E091D307F09114
S1132240D4079E898689981710F0D0928007F701E9
S113225080818111CCCF80918107882399F080916E
S11322608107882379F0C1E00E9417108111C0937F
S11322708007809181078150809381078091810735
S11322808111F2CF80918007813041F40E94B70A16
S113229081E005C080E003C080E001C080E00F90D1
S11322A00FBEDF91CF911F910F91FF90EF90DF90C0
S11322B008950F931F93CF93DF938C01EB010E943A
S11322C007108091840790918507F801208131815E
S11322D0C20FD31F8217930748F4C217D30710F510
S11322E0D183C0838C179D0790F407C0C217D3070E
S11322F0A8F08C179D0790F015C08091D30790919A
S1132300D40702960E94EB09CE010E94950E0E940A
S1132310D61081110BC00E94B70A08C0F801D183FE
S1132320C083EBCFF801D183C083F1CFDF91CF918C
S11323301F910F910895CF93DF93EC010097B1F0B3
S11323400E9407108091840790918507C80FD91FB8
S11323508091D3079091D40702960E94EB09CE0195
S11323600E94950E0E94D610811102C00E94B70AE5
S1132370DF91CF91089580917B07882321F081E03C
S1132380809380070895109280078091830790E0DE
S1132390FC01EE0FFF1FEE0FFF1FEE0FFF1F8E0F4E
S11323A09F1FFC01E155F84F8081811117C0809176
S11323B083078150809383078091830790E0FC0119
S11323C0EE0FFF1FEE0FFF1FEE0FFF1F8E0F9F1F5D
S11323D0FC01E155F84F8081882349F3E09183079C
S11323E0F0E0CF01880F991F880F991F880F991F5C
S11323F0E80FF91FE155F84FA181B28112960D90B3
S1132400BC91A02DB283A183CF010396A817B9076D
S113241031F412968D919C9113979283818301805C
S1132420F281E02D868197819093D4078093D3071E
S113243008950F931F93CF93DF93EC010FB6F89495
S11324400F92009721F4C091D307D091D4078E0145
S11324500E5F1F4FC8010E94EB098C899D89892B4F
S113246021F0CE010C960E94EB09B80187E897E0B1
S11324700E9499090F900FBE8091D3079091D407C1
S1132480C817D907A9F480918207882319F00E94FC
S1132490B70A19C08091860790918707981305C0E1
S11324A01092D4071092D3070EC00E94BB110BC028
S11324B080918207882339F00FB6F8940F920E9416
S11324C06D0E0F900FBEDF91CF911F910F91089564
S11324D0CF93DF93EB016091D3077091D407645FCE
S11324E07F4F0E94BA098091D3079091D407029636
S11324F00E94EB09CF3F8FEFD80759F46091D307BF
S11325007091D4076E5F7F4F87E897E00E94990926
S113251008C080918407909185078C0F9D1F0E94AD
S1132520950EDF91CF9108950F931F93CF93DF936F
S1132530DC011596ED91FC911697C681D7818E0129
S1132540045F1F4FC8010E94EB0980917B07811132
S11325501CC00A501109C8010E94EB098E89909190
S11325608307981710F48093830790E09C01220F4F
S1132570331F220F331F220F331F820F931FB80103
S11325808155984F0E94990905C0B80180E997E0E8
S11325900E949909E091D307F091D4079E89868916
S11325A0891720F481E08093800701C080E0DF91E7
S11325B0CF911F910F91089520917F07FC012083F3
S11325C020918407309185073283218308950FB6C3
S11325D0F8940F924091840750918507DB012D9167
S11325E03C912F3FBFEF3B0719F1E0917F07DC01DE
S11325F0FC91FE1739F01196ED91FC9112974E174C
S11326005F07C0F4DC011196ED91FC911297DA0199
S1132610AE1BBF0BA217B30778F4E41BF50B2E0F08
S11326203F1FFB01318320830E94DC1280E005C040
S113263080E003C081E001C081E00F900FBE0895E7
S113264081E0809380070895EE0FFF1F0590F491B9
S1132650E02D0994FB01DC0102C001900D92415070
S10D26605040D8F70895F894FFCF16
S113266AF84D6F746500050D04F981010002FFFF3E
S113267AFF04B16B00B54C45440053656E736F7229
S109268A0049444C450028
S9030000FC
