:100000000C94BE010C944D090C94DB010C94DB01A3
:100010000C94DB010C94DB010C94DB010C94DB01F0
:100020000C94DB010C94DB010C94DB010C945C0B55
:100030000C94DB010C94DB010C94DB010C94DB01D0
:100040000C94DB010C94DB010C94C1060C94F106BA
:100050000C94DB010C94DB010C94DB010C94DB01B0
:100060000C94A2070C94DB01BC071D081D081D0899
:100070001D081D081D081D08BC071D081D081D08BA
:100080001D081D081D081D08BE071D081D081D08A8
:100090001D081D081D081D081D081D081D081D0838
:1000A0001D081D081D081D08BE071D081D081D0888
:1000B0001D081D081D081D081D081D081D081D0818
:1000C0001D081D081D081D0816081D081D081D080F
:1000D0001D081D081D081D08EB071D081D081D082B
:1000E0001D081D081D081D081D081D081D081D08E8
:1000F0001D081D081D081D08DF071D081D081D0817
:100100001D081D081D081D08030805000500010243
:1001100000000801010A0508020100F98100000140
:100120002C0E0005000E0C04000080010302F98172
:10013000000003E80F090200000024050000000091
:100140000F09040000000204000000000F09040071
:1001500000010003000000080F0904000000020273
:1001600000000008060005000600040F0005000F4F
:1001700009080000000101000000000000891112C0
:10018000239B322446AD573665BF74488CC19D5AB7
:10019000AFD3BE6CCAE5DB7EE9F7F88110080193A6
:1001A000331A22A5562C47B7753E64C99C408DDB97
:1001B000BF52AEEDDA64CBFFF976E802218B301046
:1001C0000299132667AF763444BD554AADC3BC5877
:1001D0008ED19F6EEBE7FA7CC8F5D983310A209166
:1001E000121803A7772E66B5543C45CBBD42ACD957
:1001F0009E508FEFFB66EAFDD874C904428D5316FA
:10020000619F702004A9153227BB364CCEC5DF5E36
:10021000EDD7FC6888E1997AABF3BA85520C439725
:10022000711E60A1142805B3373A26CDDE44CFDF16
:10023000FD56ECE9986089FBBB72AA06638F7214C5
:10024000409D512225AB343006B9174EEFC7FE5CF6
:10025000CCD5DD6AA9E3B8788AF19B87730E6295E5
:10026000501C41A3352A24B1163807CFFF46EEDDD6
:10027000DC54CDEBB962A8F99A708B088481951A89
:10028000A793B62CC2A5D33EE1B7F04008C91952D6
:100290002BDB3A644EED5F766DFF7C899400859B85
:1002A000B712A6ADD224C3BFF136E0C1184809D3B6
:1002B0003B5A2AE55E6C4FF77D7E6C0AA583B41825
:1002C0008691972EE3A7F23CC0B5D14229CB385096
:1002D0000AD91B666FEF7E744CFD5D8BB502A49945
:1002E000961087AFF326E2BDD034C1C3394A28D176
:1002F0001A580BE77F6E6EF55C7C4D0CC685D71ED9
:10030000E597F42880A1913AA3B3B2444ACD5B5655
:1003100069DF78600CE91D722FFB3E8DD604C79F04
:10032000F516E4A9902081BBB332A2C55A4C4BD735
:10033000795E68E11C680DF33F7A2E0EE787F61CA4
:10034000C495D52AA1A3B03882B193466BCF7A5415
:1003500048DD59622DEB3C700EF91F8FF706E69DC4
:10036000D414C5ABB122A0B9923083C77B4E6AD5F5
:10037000585C49E33D6A2CF11E780F0011241FBE22
:10038000CFEFD8E0DEBFCDBF11E0A0E0B1E0E4E701
:10039000F5E202C005900D92A632B107D9F728E028
:1003A000A6E2B1E001C01D92A237B207E1F70E94B8
:1003B00033080C94B8120C940000CF93DF9300D054
:1003C000CDB7DEB70E94380720E040E050E060E0A3
:1003D00070E08091CC079091CD070E94B10C20E095
:1003E0004FEF5FEFBE016F5F7F4F8091700890917C
:1003F00071080E947E0D882391F360E389819A81C0
:100400000E943207ECCFAF92BF92CF92DF92EF9271
:10041000FF920F93082F80E80E94770643E060E088
:1004200081E00E94830C9093CD078093CC07A12C90
:10043000B12CC12CD12CE12CF12C20E030E040E09B
:1004400051E061E071E08DED91E00E949D0E0F9111
:10045000FF90EF90DF90CF90BF90AF9008950F93F3
:100460001F93CF93DF93EC010C8110E0EA81FB81B5
:100470000995FE01E00FF11F85838C818F5F8C83CE
:10048000EC81F0E03197EC0FFD1F85818E37F9F498
:100490008C8190E0019718161906CCF420E230E028
:1004A000AE014C5F5F4FBE016B5F7F4FCE018E5838
:1004B0009F4F0E941F059E8F8D8F8D8D9E8D1816CC
:1004C000190614F481E08F8F1C828F8D02C01F8E5D
:1004D0008F8DDF91CF911F910F910895EF92FF9231
:1004E0000F931F93CF93DF93E62E8A01662359F073
:1004F000C82FD92FF12CD801ED91FC918991099544
:10050000F394FE10F8CFDF91CF911F910F91FF90E0
:10051000EF900895442389F0282FE62FF72FA82F76
:10052000B92F30E08D919491891301C03F5F3196CE
:100530008A2F821B8417B0F301C030E081E03417AA
:1005400008F480E00895EF92FF920F931F93CF93EA
:10055000DF93EC0120E04FEF5FEF60E070E080910F
:10056000CE079091CF070E947E0D813099F71F8EA4
:1005700088E0FE01EC58FF4F80834D8D5E8D8E012B
:100580000E581F4F6FE671E0C8010E948A0288234F
:10059000B1F022E530E044E050E06BE671E07E012E
:1005A00080E2E80EF11CC7010E940D06FE01EE5626
:1005B000FF4F8083AE01682FC7010E946E027E014B
:1005C00080E2E80EF11C22E530E043E050E068E60E
:1005D00071E0C7010E940D06FE01EE56FF4F8083B9
:1005E000AE01682FC7010E946E0220E04FEF5FEF5F
:1005F00060E070E08091CE079091CF070E947E0D61
:10060000813099F71F8E4D8D5E8D64E671E0C801D3
:100610000E948A02882391F022E530E044E050E015
:1006200064E671E0C7010E940D06FE01EE56FF4F21
:100630008083AE01682FC7010E946E0220E04FEF59
:100640005FEF60E070E08091CE079091CF070E944D
:100650007E0D813099F71F8E4D8D5E8D68E571E0BE
:10066000C8010E948A02882391F022E530E044E02C
:1006700050E06BE671E0C7010E940D06FE01EE56E8
:10068000FF4F8083AE01682FC7010E946E0220E0F9
:100690004FEF5FEF60E070E08091CE079091CF0761
:1006A0000E947E0D813099F71F8E4D8D5E8D6CE41A
:1006B00071E0C8010E948A02882391F022E530E0AF
:1006C00044E050E06BE671E0C7010E940D06FE01B8
:1006D000EE56FF4F8083AE01682FC7010E946E0265
:1006E00020E04FEF5FEF60E070E08091CE079091E7
:1006F000CF070E947E0D813099F71F8E4D8D5E8D44
:1007000060E471E0C8010E948A02882391F022E52A
:1007100030E044E050E06BE671E0C7010E940D0656
:10072000FE01EE56FF4F8083AE01682FC7010E9485
:100730006E0220E04FEF5FEF60E070E08091CE0747
:100740009091CF070E947E0D813099F71F8E4D8DBD
:100750005E8D64E371E0C8010E948A02882391F0F3
:1007600022E530E044E050E06BE671E0C7010E9412
:100770000D06FE01EE56FF4F8083AE01682FC701C4
:100780000E946E0220E04FEF5FEF60E070E080912A
:10079000CE079091CF070E947E0D813099F71F8E72
:1007A0004D8D5E8D65E271E0C8010E948A0288234A
:1007B00091F022E530E044E050E061E271E0C701F1
:1007C0000E940D06FE01EE56FF4F8083AE01682F9A
:1007D000C7010E946E02DF91CF911F910F91FF9090
:1007E000EF900895CF92DF92EF92FF920F931F93B5
:1007F000CF93DF93EC018C01005E1F4F22E530E0C8
:100800004DE050E064E171E0C8010E940D06FE0178
:10081000EE56FF4F8083AE01682FC8010E946E0222
:1008200020E04FEF5FEF60E070E08091CE079091A5
:10083000CF070E947E0D813099F71F8E4D8D5E8D02
:100840006EE071E0CE018E589F4F0E948A026E01C9
:1008500082E9C80ED11C7E01E5E7EE0EF11C20E016
:100860004FEF5FEF60E070E08091CE079091CF078F
:100870000E947E0D813099F71F8E22E530E044E022
:1008800050E061E271E0C8010E940D06F60180832C
:10089000AE01682FC8010E946E02F701808183308B
:1008A000F1F280818111DBCFDF91CF911F910F9108
:1008B000FF90EF90DF90CF900895442381F0282F90
:1008C000A62FB72FE82FF92F30E091918D91981333
:1008D00001C03F5F8E2F821B8417B8F301C030E048
:1008E00081E0341708F480E00895DF92EF92FF92E0
:1008F0000F931F93CF93DF93D62E142FE901790125
:1009000022E9E20EF11CF70110822BE0E6E0F1E0B3
:10091000A6E2B1E001900D922A95E1F729E0260FB9
:100920002093270160933101462F50E0BC0182E300
:1009300091E00E94AF1210932B018E01005E1F4FB9
:100940004CE04D0D50E022E530E066E271E0C80178
:100950000E94B005F7018083AE01682FC8010E9494
:100960006E0220E04FEF5FEF60E070E08091CE0715
:100970009091CF070E947E0D813099F71F8E4D8D8B
:100980005E8D6AE071E0CE018E589F4F0E945D043B
:1009900091E0811101C090E0892FDF91CF911F91EB
:1009A0000F91FF90EF90DF900895FC01E627FF275D
:1009B000EE0FFF1FE558FE4F25913491892F99279F
:1009C0008227932708950F931F93CF93DF93611589
:1009D000710579F0EC018C01060F171F8FEF9FEF67
:1009E000FE0164910E94D5042196C017D107C1F77A
:1009F00002C08FEF9FEF80959095DF91CF911F916F
:100A00000F9108950F931F93CF93DF936115710595
:100A100069F0EC018C01060F171F8FEF9FEF6991B2
:100A20000E94D504C017D107D1F702C08FEF9FEF06
:100A300080959095DF91CF911F910F9108954F92DE
:100A40005F926F927F928F929F92AF92BF92CF925E
:100A5000DF92EF92FF920F931F93CF93DF934C019E
:100A60006A015901FA018081882309F44DC0062FDB
:100A7000172F40E050E0712C8FEF9FEFE12CF12C0D
:100A8000C0E0D0E066246394512C6894442445F877
:100A9000F80121918F012E3769F4772051F1552308
:100AA00059F1CF5FF601C083883B904F81F5C701B4
:100AB000029735C02D37F9F07720F1F0442331F05B
:100AC000F401EE0DFF1D2425208304C0F401EE0D7A
:100AD000FF1D2083AE14BF04E8F0F401EE0DFF1DEE
:100AE00060810E94D5042FEFE21AF20A452D562D9F
:100AF00003C0762C01C0462D2196F601208130E0FE
:100B0000C217D30728F209C08EEF9FEF08C08FEFFE
:100B10009FEF05C08DEF9FEF02C08EEF9FEFDF913B
:100B2000CF911F910F91FF90EF90DF90CF90BF90EA
:100B3000AF909F908F907F906F905F904F900895AF
:100B400023E8260F223040F42DE7FC01208320E229
:100B50006227618382E00895FC01608381E008954B
:100B60008F929F92AF92BF92CF92DF92EF92FF92BD
:100B70000F931F93CF93DF937C015B01EA0169011F
:100B8000BA01C5010E940205882E992E8EE7F70151
:100B900080832097C9F08501AC0EBD1EC1E0D0E076
:100BA000F4E0CF1AD108F80161918F01C7018C0FD1
:100BB0009D1F0E94A005C80FD11DCC16DD06F0F0C8
:100BC0000A151B0581F702C0C1E0D0E0682DC701FE
:100BD0008C0F9D1F0E94A005C80FD11D692DC70154
:100BE0008C0F9D1F0E94A005C80FD11DF701EC0FAF
:100BF000FD1F8EE78083CE01019602C08DEF9FEF2F
:100C0000DF91CF911F910F91FF90EF90DF90CF90E8
:100C1000BF90AF909F908F9008958F929F92AF92C8
:100C2000BF92CF92DF92EF92FF920F931F93CF93D9
:100C3000DF937C015B01EA016901BA01C5010E94F1
:100C4000E304882E992E8EE7F70180832097D1F058
:100C50008501AC0EBD1EC1E0D0E0F4E0CF1AD10892
:100C6000F8016491C7018C0F9D1F0E94A005C80F59
:100C7000D11DCC16DD0600F10F5F1F4F0A151B05B5
:100C800079F702C0C1E0D0E0682DC7018C0F9D1F2D
:100C90000E94A005C80FD11D692DC7018C0F9D1F93
:100CA0000E94A005C80FD11DF701EC0FFD1F8EE7B4
:100CB0008083CE01019602C08DEF9FEFDF91CF912F
:100CC0001F910F91FF90EF90DF90CF90BF90AF906A
:100CD0009F908F90089584B18FEF84B9089595B156
:100CE00081E0892785B908958091C60008950FB6DF
:100CF000F8940F9240E061E00E94830C90936701AA
:100D00008093660183E090E09093C5008093C400D7
:100D100088E98093C10086E08093C20043E060E0F0
:100D200081E00E94830C9093CF078093CE070F90B1
:100D30000FBE80E090E00895CF93DF931F92CDB770
:100D4000DEB7698320E0BE016F5F7F4F809166014F
:100D5000909167010E94B10C813031F4E1ECF0E038
:100D600090819062908301C080E00F90DF91CF91DD
:100D7000089540E150E0682F80E090E00E949C06DA
:100D800008951F920F920FB60F9211242F933F9345
:100D90004F935F936F937F938F939F93AF93BF9383
:100DA000EF93FF9380ED97E00E942F02882341F09C
:100DB00060E070E08091CE079091CF070E94530DC4
:100DC000FF91EF91BF91AF919F918F917F916F9123
:100DD0005F914F913F912F910F900FBE0F901F90F9
:100DE00018951F920F920FB60F9211242F933F93D5
:100DF0004F935F936F937F938F939F93AF93BF9323
:100E0000EF93FF93CF93DF931F92CDB7DEB72A9A6C
:100E100040E050E0BE016F5F7F4F8091660190918E
:100E200067010E942A0E813021F489818093C600D7
:100E300005C0E1ECF0E080818F7D80830F90DF9131
:100E4000CF91FF91EF91BF91AF919F918F917F9142
:100E50006F915F914F913F912F910F900FBE0F9027
:100E60001F90189520ED37E042E00E947504089528
:100E700089EB96E09093D1078093D00784E796E0C2
:100E80009093D3078093D20783E087B984E088B931
:100E900088EC90E00E948411409A80ED97E00E94D7
:100EA000A30280ED97E00E94F203419A0895109208
:100EB000B9008DE18093B800089520916A01211155
:100EC000FCCF60936308FC0120812093640820819B
:100ED00020FD12C0623080F031969C010296625073
:100EE000860F911DDF01A21BB30B4191AC59B74F87
:100EF0004C93E817F907B1F71092690188EF8093D6
:100F0000000185EA8093BC0081E080936A01089526
:100F100020916A012111FCCF2091690120FF0EC0B0
:100F2000662361F0E82FF92F80E090E0DC01AC59F6
:100F3000B74F2C91219301968617C0F380916901D8
:100F4000817008951F920F920FB60F9211242F9364
:100F50003F938F939F93AF93BF93EF93FF938091B2
:100F6000B90090E0FC013897E135F10508F065C063
:100F7000EC5CFF4F0C94A91210926801E09168019B
:100F800080916308E81780F481E080936A018E0FF6
:100F900080936801F0E0EC59F74F80818093BB00AB
:100FA00085E88093BC0052C0809169018160809384
:100FB000690110926A0184E98093BC0047C0E09106
:100FC000680181E08E0F80936801F0E08091BB00A2
:100FD000EC59F74F8083809163082091680130E0DD
:100FE00090E00197281739073CF481E080936A016B
:100FF00085EC8093BC002AC081E080936A0185E87B
:101000008093BC0023C0E0916801F0E08091BB00B8
:10101000EC59F74F80838091690181608093690169
:1010200010926A0184E98093BC0010C081E0809333
:101030006A0185EA8093BC0009C010926A01809120
:10104000B9008093000184E08093BC00FF91EF9190
:10105000BF91AF919F918F913F912F910F900FBEB4
:101060000F901F90189582E00E94030282E00E9478
:101070002D09A12CB12CC12CD12CE12CF12C01E09B
:1010800020E030E045E550E066E171E08DE498E075
:101090000E949D0E0E94A20FFFCFCF93DF9300D03E
:1010A000CDB7DEB70E946B060E94DA0F9A83898360
:1010B0000E946F0668EE73E0CE0101960E94421115
:1010C000F7CFCF93DF93CDB7DEB72C970FB6F89459
:1010D000DEBF0FBECDBF40E062E081E00E94830C26
:1010E000909371088093700843E060E081E00E9473
:1010F000830C90936F0880936E0820E04FEF5FEFB2
:1011000060E070E08091CC079091CD070E947E0D49
:10111000813099F752985A9AE89AE9E6F0E080818E
:10112000826080830E9457071CE31B831C8280E738
:101130008D8363E0CE0103960E945D0784E690E014
:101140000E9484111B8301E00C8380EA8D8363E09D
:10115000CE0103960E945D0784E690E00E94841110
:101160001B8382E08C830D8363E0CE0103960E9493
:101170005D0784E690E00E948411D12C0F2EFDE3E0
:101180008F2EF02D0F2EF3E0CF2EF02D8E01055F68
:101190001F4F0F2EFBE6EF2EF1E0FF2EF02D68948F
:1011A000772474F80F2EFCE39F2EF02D6894AA2468
:1011B000A1F8BB24B39420E04FEF5FEF60E070E054
:1011C00080916E0890916F080E947E0D882399F39C
:1011D0008B82CC8268E0CE0103960E945D0781E09D
:1011E00090E00E94841168E0CE0103960E94880777
:1011F000FE0135968D2D90E0DC01AA0FBB1F8A0FF2
:101200009B1FDC01AA0FBB1FA559BE4F81918D9377
:10121000E017F107D9F7D39487E08D1588F4F7012B
:101220007082FA82E98220E040E050E0BE016F5F08
:101230007F4F80917008909171080E94B10CD12C61
:101240009B82AC82BD826C2DCE0103960E945D070D
:1012500081E090E00E948411AECFAF92BF92CF9216
:10126000DF92EF92FF920F93A12CB12CC12CD12CC5
:10127000E12CF12C082F20E030E040E051E06AE161
:1012800071E081E698E00E949D0E0F91FF90EF9033
:10129000DF90CF90BF90AF9008951F920F920FB63E
:1012A0000F9211242F933F934F935F936F937F93EC
:1012B0008F939F93AF93BF93EF93FF9360E070E0A2
:1012C00080916E0890916F080E94530DFF91EF91ED
:1012D000BF91AF919F918F917F916F915F914F914E
:1012E0003F912F910F900FBE0F901F901895FC010A
:1012F0000396928381832FEF3FEF3483238396837A
:1013000085839087878310820895FC01118610865B
:101310000895CF93DF939C01FB01DC011196CD91E1
:10132000DC911297D383C2838C819D8195838483C2
:101330008C819D81DC0113967C936E9312977D8343
:101340006C8331872087F90180818F5F8083DF91F3
:10135000CF910895CF93DF93EB01488159814F3F9F
:101360002FEF520721F4FC01A781B0850DC0DC01ED
:1013700013961296ED91FC911397208131814217BB
:10138000530710F0DF01F5CF1296ED91FC91139702
:10139000FB83EA83D583C483BD83AC831396DC933C
:1013A000CE93129799878887FC0120812F5F208335
:1013B000DF91CF910895CF93DF93FC01A085B18594
:1013C000C281D381848195819D838C83C481D581A1
:1013D000828193819B838A831196CD91DC911297B0
:1013E000CE17DF0731F48C819D8112969C938E93EA
:1013F0001197118610868C9181508C93DF91CF913B
:10140000089531E1FC013083319722E22083319746
:10141000A3E3A08331976083319770833197108263
:10142000319760E8608331971082319762E0608382
:10143000319763E06083319764E06083319765E0C2
:101440006083319766E06083319767E0608331970E
:1014500068E06083319769E06083319760E1608381
:1014600031973083319732E13083319733E13083E4
:10147000319734E13083319735E13083319736E16C
:101480003083319737E13083319738E130833197BA
:1014900039E13083319730E23083319731E2308364
:1014A00031972083319723E220833197408331970E
:1014B0005083319726E22083319727E220833197AA
:1014C00028E22083319729E22083319720E320838B
:1014D000319721E32083869708951092890082E74F
:1014E000809388008BE080938100EFE6F0E08081BC
:1014F00082608083A091CA07B091CB07CD91CDBF08
:10150000DD91DEBFFF91EF91DF91CF91BF91AF9160
:101510009F918F917F916F915F914F913F912F910B
:101520001F910F91FF90EF90DF90CF90BF90AF9001
:101530009F908F907F906F905F904F903F902F90F3
:101540001F900F900FBE0F90089581E008950F92A5
:101550000FB6F8940F921F9211242F923F924F9240
:101560005F926F927F928F929F92AF92BF92CF9233
:10157000DF92EF92FF920F931F932F933F934F931E
:101580005F936F937F938F939F93AF93BF93CF930B
:10159000DF93EF93FF93A091CA07B091CB070DB6ED
:1015A0000D920EB60D920E94A411A091CA07B0919F
:1015B000CB07CD91CDBFDD91DEBFFF91EF91DF91E4
:1015C000CF91BF91AF919F918F917F916F915F91DB
:1015D0004F913F912F911F910F91FF90EF90DF90CE
:1015E000CF90BF90AF909F908F907F906F905F90C3
:1015F0004F903F902F901F900F900FBE0F90089527
:101600000F920FB6F8940F921F9211242F923F92CF
:101610004F925F926F927F928F929F92AF92BF9202
:10162000CF92DF92EF92FF920F931F932F933F93EE
:101630004F935F936F937F938F939F93AF93BF93DA
:10164000CF93DF93EF93FF93A091CA07B091CB079D
:101650000DB60D920EB60D920E94E40F81110E94FC
:10166000A411A091CA07B091CB07CD91CDBFDD9158
:10167000DEBFFF91EF91DF91CF91BF91AF919F912D
:101680008F917F916F915F914F913F912F911F911A
:101690000F91FF90EF90DF90CF90BF90AF909F9011
:1016A0008F907F906F905F904F903F902F901F9002
:1016B0000F900FBE0F9008950E94000B1895CF93C6
:1016C000DF93EC010E94D40F80919B0190919C01CB
:1016D000892B31F480EA91E090939C0180939B01E7
:1016E00040919D0150919E019E01240F351F2B3D7D
:1016F00085E0380770F44217530770F4C0919B01DE
:10170000D0919C01C40FD51F30939E0120939D0161
:1017100005C0C0E0D0E002C0C0E0D0E00E94BF1031
:10172000CE01DF91CF91089508951F93CF93DF935A
:10173000EC01142F8C8D8823E9F1411117C0482F3B
:1017400050E08C819D810E94AF122C8D8C819D81F7
:10175000820F911D9D838C832A813B818217930781
:1017600048F1888199819D838C8324C0482F50E063
:101770008E819F810E94AF122C8D30E03195219592
:1017800031098E819F81820F931F9F838E83688191
:1017900079818617970730F48A819B81280F391F3A
:1017A0003F832E83123031F48A8D882319F08A8D7D
:1017B00081508A8F8A8D8F5F8A8F80E0DF91CF91F1
:1017C0001F910895FC01CB01448D4423A1F050E00A
:1017D00026813781240F351F3783268362817381E9
:1017E0002617370720F020813181378326836681D1
:1017F00077810E94AF1208950F931F93CF93DF93C9
:10180000EC010FB6F8940F928E8D1816B4F48989F6
:10181000882399F08E010F5E1F4F03C089898823AA
:1018200061F0C8010E941F1281110E94A5128E8DC5
:1018300081508E8F8E8D18168CF38FEF8E8F0F90B8
:101840000FBE0FB6F8940F928D8D1816B4F48885DC
:10185000882399F08E01085F1F4F03C08885882375
:1018600061F0C8010E941F1281110E94A5128D8D86
:1018700081508D8F8D8D18168CF38FEF8D8F0F907B
:101880000FBEDF91CF911F910F910895CF93DF93FA
:10189000EC010FB6F8940F92888199812C8D30E07D
:1018A0007B8D729FA001739F500D1124FC01E40FEA
:1018B000F51FFB83EA831A8E9D838C83421B530B97
:1018C000840F951F9F838E838FEF8D8F8E8F611175
:1018D0000CC08885882389F0CE0108960E941F12CB
:1018E000813059F40E94A70A08C0CE0108960E94D0
:1018F0007709CE0141960E9477090F900FBE81E0D3
:10190000DF91CF9108950F931F93CF93DF93082F0B
:10191000162F6623C9F0869FC001112480960E946D
:101920005F0BEC01009721F416C0D983C88305C072
:101930009C01215E3F4F398328830B8F1C8F61E010
:10194000CE010E94460C07C08FE190E00E945F0B21
:10195000EC01009751F7CE01DF91CF911F910F91CC
:1019600008959F92AF92BF92CF92DF92EF92FF9233
:101970000F931F93CF93DF9300D000D01F92CDB76A
:10198000DEB78C016B015D834C83A22EB12C9924B0
:1019900093947C0188E0E80EF11C0FB6F8940F9246
:1019A000F801928D838D981718F0F2E0AF1219C0EC
:1019B0004A2DB601C8010E94950BF801918999231F
:1019C00049F0C80141960E941F12813031F40E94F3
:1019D000A70A03C081110E94A70A0F900FBE81E0E1
:1019E00051C0EC81FD81EF2B21F40F900FBE80E000
:1019F00049C0B11005C0CE0101960E946712B92CF2
:101A00000F900FBE0E94D40F0FB6F8940F92F801FA
:101A1000858D8F3F09F4158EF801868D8F3F09F46F
:101A2000168E0F900FBEBE016C5F7F4FCE010196E8
:101A30000E947212811120C00FB6F8940F92F80123
:101A4000928D0F900FBEF801838D98130FC06C819B
:101A50007D81C7010E940212C8010E94FC0B0E94F6
:101A6000BF1081119ACF0E94A70A97CFC8010E9488
:101A7000FC0B0E94BF1091CFC8010E94FC0B0E947A
:101A8000BF1080E00F900F900F900F900F90DF919C
:101A9000CF911F910F91FF90EF90DF90CF90BF906B
:101AA000AF909F900895CF93DF93FC01EB01928D4F
:101AB000838D9817C8F4828D8F5F828F868D8F3FBC
:101AC00071F48189882391F0CF0141960E941F1201
:101AD000882371F0209771F081E088830CC0868D97
:101AE0008F5F868F81E007C080E005C081E003C082
:101AF00081E001C081E0DF91CF9108959F92AF9284
:101B0000BF92CF92DF92EF92FF920F931F93CF93EA
:101B1000DF9300D000D01F92CDB7DEB78C016B01F0
:101B20005D834C83B22EA12C992493947C0181E196
:101B3000E80EF11C0FB6F8940F92F801828D8823FD
:101B400049F1E680F780B601C8010E94E20BB110AE
:101B500010C0F801828D8150828F80858823B1F07A
:101B6000C80108960E941F12813081F40E94A70AC2
:101B70000DC0F801F782E6828189882339F0C80117
:101B800041960E941F1281110E94A70A0F900FBE5A
:101B900081E04FC04C815D81452B21F40F900FBE39
:101BA00080E047C0A11005C0CE0101960E946712D7
:101BB000A92C0F900FBE0E94D40F0FB6F8940F926D
:101BC000F801858D8F3F09F4158EF801868D8F3FC2
:101BD00009F4168E0F900FBEBE016C5F7F4FCE01D1
:101BE00001960E94721281111EC00FB6F8940F92D6
:101BF000F801828D0F900FBE81110FC06C817D8125
:101C0000C7010E940212C8010E94FC0B0E94BF1073
:101C1000811190CF0E94A70A8DCFC8010E94FC0BB2
:101C20000E94BF1087CFC8010E94FC0B0E94BF100A
:101C300080E00F900F900F900F900F90DF91CF9159
:101C40001F910F91FF90EF90DF90CF90BF90AF90DA
:101C50009F9008950F931F93CF93DF93EC018A0118
:101C60008A8D8823F1F0CE010E94E20B8A8D81508B
:101C70008A8F8D8D8F3F81F488858823A1F0CE01D6
:101C800008960E941F12882381F00115110579F032
:101C900081E0F80180830CC08D8D8F5F8D8F81E096
:101CA00007C080E005C081E003C081E001C081E0A1
:101CB000DF91CF911F910F910895C6EAD7E08881F7
:101CC000823008F4FFCF0E94A70AF9CFCF93DF93A9
:101CD000EC01E091CA07F091CB0793838283809156
:101CE000840790918507C817D90768F46091CA07DF
:101CF0007091CB0780919007909191076E5F7F4F15
:101D00000E94AA0917C06091CA077091CB07809101
:101D10009207909193076E5F7F4F0E94AA0980916E
:101D20007C0790917D07C817D90720F4D0937D07D1
:101D3000C0937C07DF91CF9108954F925F926F928D
:101D40007F928F929F92AF92BF92CF92DF92EF924B
:101D5000FF920F931F93CF93DF934C015B012A01F6
:101D60003901C114D10439F4CA010E945F0B6C011E
:101D7000009709F4D5C086E290E00E945F0BEC0169
:101D8000009771F0D88ECF8A81E0481A5108C40CB0
:101D9000D51CD5018C91898F8C91811105C015C0FE
:101DA000C6010E94940BBCC0AE01465E5F4FF501B8
:101DB000319627E0CF013191DA013D93AD01DC018D
:101DC0008C91882311F02150A9F718A2102F04300C
:101DD00008F013E01E8B5E01B2E0AB0EB11CC50132
:101DE0000E948509CE010C960E948509D987C88773
:101DF00084E090E0811B91099D878C87DB8BCA8BE7
:101E000019A21AA21BA21CA21DA2A301B401C60101
:101E10000E94010A99838883E114F10419F0F70103
:101E2000D183C0830FB6F8940F92809186078F5F9D
:101E3000809386078091CA079091CB07892B89F5FB
:101E4000D093CB07C093CA07809186078130C1F534
:101E500086EA97E00E9477098FEA97E00E94770967
:101E600088EB97E00E94770981EC97E00E94770960
:101E70008DE997E00E94770984E997E00E9477094D
:101E800087E897E00E9477098DE997E090939307A0
:101E90008093920784E997E090939107809390074D
:101EA0000FC08091820781110BC0E091CA07F091A9
:101EB000CB078689081720F0D093CB07C093CA07B9
:101EC00080917E078F5F80937E078E899091830734
:101ED000981710F48093830790E09C01220F331F22
:101EE000220F331F220F331F820F931FB5018A5514
:101EF000984F0E9489090F900FBE80918207882316
:101F000059F0E091CA07F091CB078689801730F429
:101F10000E94A70A81E005C081E003C081E001C002
:101F20008FEFDF91CF911F910F91FF90EF90DF9096
:101F3000CF90BF90AF909F908F907F906F905F9069
:101F40004F900895AF92BF92CF92DF92EF92FF929F
:101F50000F93A12CB12CC12CD12CE12CF12C00E041
:101F600020E030E045E550E061E271E08DE59EE083
:101F70000E949D0E813081F4F8948FEF9FEF909333
:101F80007D0780937C0781E080938207109285070C
:101F9000109284070E946D0A0F91FF90EF90DF90DE
:101FA000CF90BF90AF90089580917B078F5F809313
:101FB0007B0708950FB6F8940F9280918407909153
:101FC00085070F900FBE0895CF92DF92EF92FF9298
:101FD0000F931F93CF93DF9380917B078111B6C03E
:101FE000809184079091850701969093850780934F
:101FF0008407E0908407F0908507E114F10499F5D7
:1020000080919207909193072091900730919107CA
:1020100030939307209392079093910780939007B2
:1020200080917F078F5F80937F07E0919207F09107
:1020300093078081811107C08FEF9FEF90937D07F9
:1020400080937C0710C0E0919207F0919307058080
:10205000F681E02D0680F781E02D828193819093B7
:102060007D0780937C0780917C0790917D07E8161F
:10207000F90608F454C0D12CCC24C39401C0DC2C44
:10208000E0919207F09193078081811107C08FEF53
:102090009FEF90937D0780937C0742C0E091920769
:1020A000F09193070580F681E02DC681D7812A81C2
:1020B0003B81E216F30628F430937D0720937C07DA
:1020C0002FC08E010E5F1F4FC8010E94DB098C8953
:1020D0009D89892B21F0CE010C960E94DB092E8967
:1020E00080918307821710F42093830730E0C901A1
:1020F000880F991F880F991F880F991F820F931FB0
:10210000B8018A55984F0E948909E091CA07F09159
:10211000CB079E898689981708F0B1CFB1CFD12C13
:10212000E091CA07F091CB07868990E0FC01EE0FA1
:10213000FF1FEE0FFF1FEE0FFF1F8E0F9F1FFC01F3
:10214000EA55F84F8081823040F409C080918107C0
:102150008F5F80938107D12C02C0DD24D3948091BE
:102160008007882311F0DD24D3948D2DDF91CF914A
:102170001F910F91FF90EF90DF90CF900895DF9225
:10218000EF92FF920F931F93CF93DF930FB6F894C4
:102190000F9280917B07815080937B0780917B0712
:1021A000811161C080918607882309F45EC00F2EDB
:1021B000F7E8EF2EF7E0FF2EF02DDD24D39430C0AA
:1021C000E0918C07F0918D07C681D781CE010C96E6
:1021D0000E94DB098E010E5F1F4FC8010E94DB09C0
:1021E0008E8990918307981710F48093830790E06D
:1021F0009C01220F331F220F331F220F331F820F28
:10220000931FB8018A55984F0E948909E091CA0727
:10221000F091CB079E898689981710F0D09280079D
:10222000F70180818111CCCF80918107882399F0BB
:1022300080918107882379F0C1E00E94E40F811129
:10224000C09380078091810781508093810780919E
:1022500081078111F2CF80918007813041F40E9483
:10226000A70A81E005C080E003C080E001C080E0F3
:102270000F900FBEDF91CF911F910F91FF90EF90C4
:10228000DF9008950F931F93CF93DF938C01EB01A1
:102290000E94D40F8091840790918507F8012081D6
:1022A0003181C20FD31F8217930748F4C217D30797
:1022B00010F5D183C0838C179D0790F407C0C21717
:1022C000D307A8F08C179D0790F015C08091CA071E
:1022D0009091CB0702960E94DB09CE010E94660E08
:1022E0000E94BF1081110BC00E94A70A08C0F8010C
:1022F000D183C083EBCFF801D183C083F1CFDF91CD
:10230000CF911F910F910895CF93DF93EC01009728
:10231000B1F00E94D40F8091840790918507C80F77
:10232000D91F8091CA079091CB0702960E94DB09C2
:10233000CE010E94660E0E94BF10811102C00E9451
:10234000A70ADF91CF91089580917B07882321F020
:1023500081E0809380070895109280078091830721
:1023600090E0FC01EE0FFF1FEE0FFF1FEE0FFF1FAF
:102370008E0F9F1FFC01EA55F84F8081811117C015
:10238000809183078150809383078091830790E039
:10239000FC01EE0FFF1FEE0FFF1FEE0FFF1F8E0F52
:1023A0009F1FFC01EA55F84F8081882349F3E09193
:1023B0008307F0E0CF01880F991F880F991F880FBE
:1023C000991FE80FF91FEA55F84FA181B2811296C3
:1023D0000D90BC91A02DB283A183CF010396A817C5
:1023E000B90731F412968D919C9113979283818352
:1023F0000180F281E02D868197819093CB078093B5
:10240000CA070895CF93DF93EB016091CA077091DB
:10241000CB07645F7F4F0E94AA098091CA07909101
:10242000CB0702960E94DB09809184079091850773
:102430008C0F9D1F0E94660EDF91CF9108950F9320
:102440001F93CF93DF93DC011596ED91FC911697C6
:10245000C681D7818E01045F1F4FC8010E94DB092E
:1024600080917B0781111CC00A501109C8010E948C
:10247000DB098E8990918307981710F48093830766
:1024800090E09C01220F331F220F331F220F331FB6
:10249000820F931FB8018A55984F0E94890905C081
:1024A000B80187E897E00E948909E091CA07F09196
:1024B000CB079E898689891720F481E08093800765
:1024C00001C080E0DF91CF911F910F91089520917D
:1024D0007F07FC0120832091840730918507328398
:1024E000218308950FB6F8940F92209184073091BC
:1024F000850740917F07DC015C91541739F01196F4
:102500004D915C91129724173507C8F4DC011196A0
:10251000ED91FC911297DB014D915C91D901AE1BBD
:10252000BF0BA417B50768F4E21BF30B4E0F5F1F38
:10253000FB01518340830E94671280E003C081E069
:1025400001C081E00F900FBE089581E08093800765
:102550000895EE0FFF1F0590F491E02D0994FB0103
:10256000DC0102C001900D9241505040D8F708950F
:04257000F894FFCF0D
:10257400F84D6F746500050D04F981010002FFFF39
:10258400FF04B16B00B54C45440053656E736F7224
:062594000049444C450023
:00000001FF
